:0A0A4500000102020303040405058A
:1003F700E4F513F512F511F510C203C200C202C2EB
:10040700011200807E017F008E238F24752B0175DA
:100417002C1275210175221C752901752A3C752D31
:1004270001752E5CEE54C070030204F87514007554
:1004370015808E168F17C374BE9FFF74019ECF243D
:1004470002CF3400FEE48F0F8E0EF50DF50CF50B81
:10045700F50AF509F508AF0FAE0EAD0DAC0CAB0BF9
:10046700AA0AA909A808C3120A295033E517250BB8
:10047700F582E516350AF583E0FFE515250BF582CC
:10048700E514350AF583EFF0E50B2401F50BE435A8
:100497000AF50AE43509F509E43508F50880B78552
:1004A700142385152474002480FF740134FFFEC3D0
:1004B700E52C9FF52CE52B9EF52BC3E5269FF5260E
:1004C700E5259EF525C3E5289FF528E5279EF52711
:1004D700C3E5229FF522E5219EF521C3E52A9FF575
:1004E7002AE5299EF529C3E52E9FF52EE52D9EF5D4
:1004F7002DD2E843D82090E668E04409F090E65C06
:10050700E0443DF0D2AF90E680E020E105D204124E
:1005170008B090E680E054F7F0538EF8C203120556
:10052700FF3001051201C0C2013003F2120A5B500D
:10053700EDC2031209CE20001690E682E030E704F0
:10054700E020E1EF90E682E030E604E020E0E4120C
:0705570008DF120A5D80C7F6
:0B0A3A0090E50DE030E402C322D3225F
:1001C00090E6B9E0700302027F1470030202FC247F
:1001D000FE700302037F24FB700302027914700394
:1001E00002027314700302026714700302026D248A
:1001F0000560030203E3120A5F40030203EF90E687
:10020000BBE024FE602714603824FD6011146027D1
:1002100024067050E52390E6B3F0E524803C120AF2
:100220003A503EE52B90E6B3F0E52C802DE5259085
:10023000E6B3F0E5268023E52790E6B3F0E52880D5
:100240001990E6BAE0FF12090BAA06A9077B01EA9A
:10025000494B600DEE90E6B3F0EF90E6B4F0020388
:10026000EF0203DE0203DE120A050203EF120A4F59
:100270000203EF12086F0203EF1209F30203EF12F9
:100280000A6140030203EF90E6B8E0247F60151492
:10029000601924027063A200E43325E0FFA202E4A7
:1002A000334F8041E490E740F0803F90E6BCE0545B
:1002B0007EFF7E00E0D394807C0040047D018002BC
:1002C0007D00EC4EFEED4F2445F582740A3EF58329
:1002D000E493FF3395E0FEEF24A1FFEE34E68F8236
:1002E000F583E0540190E740F0E4A3F090E68AF053
:1002F00090E68B7402F00203EF0203DE120A634001
:10030000030203EF90E6B8E024FE601624026003C7
:100310000203EF90E6BAE0B40105C2000203EF0267
:1003200003DE90E6BAE0705590E6BCE0547EFF7EB6
:1003300000E0D394807C0040047D0180027D00ECCD
:100340004EFEED4F2445F582740A3EF583E493FF9B
:100350003395E0FEEF24A1FFEE34E68F82F583E0D3
:1003600054FEF090E6BCE05480131313541FFFE0DA
:10037000540F2F90E683F0E04420F08072805F12EB
:100380000A65506B90E6B8E024FE60192402704EB6
:1003900090E6BAE0B40104D200805490E6BAE0647A
:1003A00002604C803990E6BCE0547EFF7E00E0D3D2
:1003B00094807C0040047D0180027D00EC4EFEEDC7
:1003C0004F2445F582740A3EF583E493FF3395E0AC
:1003D000FEEF24A1FFEE34E68F82F583800D90E6D8
:1003E000A080081205EA500790E6A0E04401F090D2
:0603F000E6A0E04480F0ED
:0103F60022E4
:03003300020A5767
:040A570053D8EF324F
:100100001201000200000040B404031000000102CC
:1001100003010A060002000000400100090220005D
:10012000010100A0320904000002FF0000000705E1
:1001300002020002000705860200020009022000F8
:10014000010100A0320904000002FF0000000705C1
:10015000040240000007058802400000040330004C
:10016000100356006900730069006F006E00730091
:1001700048034E006500750072006F006D006F004F
:100180007200700068006900630020005000720077
:100190006F0074006F0074007900700069006E00D9
:1001A00067002000480065006900640065006C007D
:1001B0006200650072006700060331003100000034
:100A17004210030000411002004110000041100184
:010A270000CE
:1006B80000000090E6047480F00000007482F000EE
:1006C80000007484F00000007486F0000000748854
:1006D800F0000000E4F000000090E6497482F000A9
:1006E8000000F0000000F0000000F000000090E6BC
:1006F800487486F0000000F0000000F0000000F0F0
:0707080000000000000022C8
:1000800090E6007410F000000090E6017403F000A8
:10009000000090E6097420F000000090E60B740365
:1000A000F000000090E6027408F000000090E60303
:1000B00074E0F000000090E670E04480F000000082
:1000C00090E61274A0F000000090E61474E0F000D6
:1000D000000090E6137402F000000090E615F000B6
:1000E0000000E490E618F00000001206B890E61850
:1000F0007410F000000090E61A744CF0000000222A
:0105FF0022D9
:020A5B00D322A4
:020A5D00D322A2
:020A5F00D322A0
:10086F0090E680E030E71690E6247402F000000076
:10087F0090E620F0000000E490E6258014E490E676
:10088F0024F000000090E620F000000090E62574B0
:10089F0040F000000090E621F090E6BAE0F51BD39F
:0108AF002226
:1009F30090E740E51BF0E490E68AF090E68B04F084
:020A0300D322FC
:080A4F0090E6BAE0F51AD3228B
:100A050090E740E51AF0E490E68AF090E68B04F072
:020A1500D322EA
:020A6100D3229E
:020A6300D3229C
:020A6500D3229A
:1005EA0090E6B9E0B4A50C1206B890E6A0E0448003
:0505FA00F0C322D32232
:10093600C0E0C083C082C085C084C086758600D2F0
:10094600015391EF90E65D7401F0D086D084D08596
:07095600D082D083D0E03213
:10098400C0E0C083C082C085C084C0867586005321
:1009940091EF90E65D7404F0D086D084D085D08247
:0509A400D083D0E03219
:1009A900C0E0C083C082C085C084C08675860053FC
:1009B90091EF90E65D7402F0D086D084D085D08224
:0509C900D083D0E032F4
:10079D00C0E0C083C082C085C084C08675860090CD
:1007AD00E680E030E70E85212585222685292785DF
:1007BD002A28800C852925852A268521278522280A
:1007CD005391EF90E65D7410F0D086D084D085D033
:0607DD0082D083D0E0325F
:10095D00C0E0C083C082C085C084C086758600D2C9
:10096D00035391EF90E65D7408F0D086D084D08566
:07097D00D082D083D0E032EC
:1007E300C0E0C083C082C085C084C0867586009087
:1007F300E680E030E70E8521258522268529278599
:100803002A28800C852925852A26852127852228C3
:100813005391EF90E65D7420F0D086D084D085D0DC
:0608230082D083D0E03218
:010A6700325C
:010A6800325B
:010A6900325A
:010A6A003259
:010A6B003258
:010A6C003257
:010A6D003256
:010A6E003255
:010A6F003254
:010A70003253
:010A71003252
:010A72003251
:010A73003250
:010A7400324F
:010A7500324E
:010A7600324D
:010A7700324C
:010A7800324B
:010A7900324A
:010A7A003249
:010A7B003248
:010A7C003247
:010A7D003246
:010A7E003245
:010A7F003244
:010A80003243
:010A81003242
:010A82003241
:010A83003240
:010A8400323F
:010A8500323E
:010A8600323D
:010A8700323C
:010A8800323B
:010A8900323A
:010A8A003239
:10070F00AD07ED30E00D908100E0901000F0A3E018
:10071F0054FEF0ED30E10D909100E0901000F0A349
:10072F00E054FDF0ED30E20D90A100E0901000F0EC
:10073F00A3E054FBF0ED30E30D90B100E09010001A
:07074F00F0A3E054F7F022D3
:10075600AD07ED30E00D908000E0901000F0A3E0D2
:100766004401F0ED30E10D909000E0901000F0A310
:10077600E04402F0ED30E20D90A000E0901000F0B1
:10078600A3E04404F0ED30E30D90B000E0901000DB
:07079600F0A3E04408F0228B
:03004300020600B2
:03005300020600A2
:10060000020936000209A9000209840002095D00FE
:1006100002079D000207E300020A6700020A680061
:10062000020A6900020A6A00020A6B00020A6C00F0
:10063000020A6D00020A6E00020A6F00020A7000D0
:10064000020A7100020A6800020A7200020A7300BC
:10065000020A7400020A7500020A7600020A770094
:10066000020A7800020A6800020A6800020A6800AA
:10067000020A7900020A7A00020A7B00020A7C0060
:10068000020A7D00020A7E00020A7F00020A800040
:10069000020A8100020A8200020A8300020A840020
:1006A000020A8500020A8600020A8700020A880000
:0806B000020A8900020A8A0017
:1008DF0090E682E030E004E020E60B90E682E03024
:1008EF00E119E030E71590E680E04401F07F147ED7
:0C08FF000012082990E680E054FEF02270
:1008B00030040990E680E0440AF0800790E680E08A
:1008C0004408F07FDC7E0512082990E65D74FFF095
:0F08D00090E65FF05391EF90E680E054F7F0224E
:02090B00A9073A
:10090D00AE2DAF2E8F828E83A3E064037017AD01E1
:10091D0019ED7001228F828E83E07C002FFDEC3E5D
:08092D00FEAF0580DFE4FEFFD0
:01093500229F
:1009CE0090E682E044C0F090E681F043870100009B
:0409DE0000000022F3
:100829008E188F1990E600E054187012E51924010A
:10083900FFE43518C313F518EF13F519801590E681
:1008490000E05418FFBF100BE51925E0F519E5186C
:1008590033F518E5191519AE18700215184E60050B
:060869001209E280EE22FC
:1009E2007400F58690FDA57C05A3E582458370F928
:0109F20022E2
:0300000002055E98
:0C055E00787FE4F6D8FD75812E0205A51B
:100A2900EB9FF5F0EA9E42F0E99D42F0E89C45F023
:010A3900229A
:10056A000203F7E493A3F8E493A34003F68001F2AD
:10057A0008DFF48029E493A3F85407240CC8C33392
:10058A00C4540F4420C8834004F456800146F6DF61
:10059A00E4800B0102040810204080900A17E47ED0
:1005AA00019360BCA3FF543F30E509541FFEE49356
:1005BA00A360010ECF54C025E060A840B8E493A31D
:1005CA00FAE493A3F8E493A3C8C582C8CAC583CA48
:1005DA00F0A3C8C582C8CAC583CADFE9DEE780BE00
:010A280000CD
:00000001FF
